:020000040800F2
:1000000000280020491D0008D91C0008DF1C00083A
:10001000E51C0008EB1C0008F11C000800000000B3
:10002000000000000000000000000000F71C0008B5
:10003000031D0008000000000F1D00081B1D000824
:10004000911D0008911D0008911D0008911D0008D8
:10005000911D0008911D0008911D0008911D0008C8
:10006000911D0008911D0008911D0008911D0008B8
:10007000911D0008911D0008911D0008911D0008A8
:10008000911D0008911D0008911D0008911D000898
:10009000911D0008911D0008911D0008911D000888
:1000A000911D0008911D0008911D0008911D000878
:1000B000291D0008911D000800000000911D000886
:1000C000911D00080000000000000000911D0008C4
:1000D00000000000911D0008911D000800000000B4
:1000E000911D0008911D0008911D000800000000EE
:1000F0000000000000000000000000000000000000
:0C01000000000000000000005FF808F1A3
:10010C0010B5054C237833B9044B13B10448AFF345
:10011C0000800123237010BD5C0000200000000053
:10012C003034000808B5034B1BB103490348AFF347
:10013C00008008BD00000000600000203034000882
:10014C0080B483B000AF7860094A7B6852F82330E2
:10015C00012B06D1064A7B68002142F823100123AB
:10016C0000E0002318460C37BD4680BC704700BF2A
:10017C007800002080B483B000AF7860044A7B68BC
:10018C00012142F8231000BF0C37BD4680BC7047DC
:10019C007800002080B582B000AF78607B68022BBD
:1001AC0017D07B68022B1BDC7B68002B03D07B6891
:1001BC00012B07D014E04FF400510C4802F0F2F878
:1001CC0003460EE04FF48041084802F0EBF803467A
:1001DC0007E04FF40041054802F0E4F8034600E064
:1001EC00012318460837BD4680BD00BF00100140F2
:1001FC0080B582B000AF00237B605DE0324A7B6843
:10020C0052F8232031497B6841F82320304A7B681F
:10021C0052F823202C497B6841F823207868FFF79B
:10022C00B9FF034619462A4A7B6842F82310264A2E
:10023C007B6852F8232025497B6851F823309A4279
:10024C0037D1214A7B6852F8232021497B6851F829
:10025C0023309A422DD11E4A7B6852F823201D4927
:10026C007B6851F823309A4215D0194A7B6852F8B2
:10027C00232018497B6841F82320164A7B6852F8E2
:10028C002330002B15D1144B4FF496721A607868FA
:10029C00FFF770FF0DE0104B1B68013B0E4A13601B
:1002AC000D4B1B68002B04D10A4A7B68012142F8D4
:1002BC0023107B6801337B607B68022B9EDD00BFC3
:1002CC0000BF0837BD4680BD0C0000200000002098
:1002DC0018000020240000203000002080B582B0DF
:1002EC0000AF78607B68202B1BD07B68202B21DC37
:1002FC007B681E2B03D07B681F2B09D01AE00221D0
:10030C000F4802F07EF810210D4802F07AF812E046
:10031C0004210B4802F075F82021094802F071F80D
:10032C0009E00821064802F06CF84021044802F06C
:10033C0068F800E000BF00BF0837BD4680BD00BFB5
:10034C000008014080B400AF094B1B68002B02D0A1
:10035C00012B04D007E0064B01221A6003E0044B8A
:10036C0000221A6000BF00BFBD4680BC704700BFB2
:10037C009C00002080B584B000AFF860B9607A6052
:10038C00144B1B68002B02D0012B0ED01BE000225B
:10039C000121114802F01DF8012202210E4802F041
:1003AC0018F8F86800F028FA0DE0012201210A483B
:1003BC0002F00FF800220221074802F00AF8B86890
:1003CC0000F01AFA00BF786800F008FC00BF103784
:1003DC00BD4680BD9C000020000C014080B582B061
:1003EC0000AF00237B6000233B60334B1B68682B02
:1003FC0040D0682B5BDC662B02D0672B1DD056E0FF
:10040C001E20FFF76BFF2D4B1B682D4A82FB03123E
:10041C005211DB17D31A3A46391D184600F0DCFE90
:10042C007B68396802221846FFF7A4FFFFF78AFFA2
:10043C004FF4FA7001F00AFD3AE01F20FFF74EFF6F
:10044C00204B1B681E4A82FB03125211DB17D31A76
:10045C003A46391D184600F0BFFE7B683968032206
:10046C001846FFF787FFFFF76DFF4FF4FA7001F0A6
:10047C00EDFC1DE02020FFF731FF134B1B68104AE9
:10048C0082FB03125211DB17D31A3A46391D184658
:10049C0000F0A2FE7B68396804221846FFF76AFF59
:1004AC00FFF750FF4FF4FA7001F0D0FC00E000BFF2
:1004BC0000BF0837BD4680BD3400002084000020FA
:1004CC001F85EB51880000208C00002080B500AF08
:1004DC00012202210E4801F07CFF012204210C486C
:1004EC0001F077FF01220821094801F072FF012277
:1004FC001021074801F06DFF01222021044801F072
:10050C0068FF01224021024801F063FF00BF80BD5B
:10051C000008014080B500AF0020FFF711FE034634
:10052C00012B33D11C4B1B681C4A13601C4B1B68E2
:10053C001C4A13601C4B1B681C4A1360FFF7C6FF58
:10054C001B4B1B68653B032B22D801A252F823F0EE
:10055C006D050008750500087D0500088505000877
:10056C00134B66221A6014E0114B67221A6010E0DC
:10057C000F4B68221A600CE00D4B65221A600D4B74
:10058C00FF221A600C4BFF221A6002E000BF00E051
:10059C0000BF00BF80BD00BF4400002084000020CD
:1005AC0048000020880000204C0000208C00002017
:1005BC00340000203C0000204000002080B500AF3B
:1005CC000120FFF7BDFD0346012B37D1214B1B68E2
:1005DC00682B24D0682B33DC662B02D0672B0FD012
:1005EC002EE01D4B1B6864331B4A13601A4B1B68AF
:1005FC0042F2AC62934225DD174B64221A6021E073
:10060C00164B1B686433154A1360144B1B6842F27B
:10061C00AC62934218DD114B64221A6014E0104B4B
:10062C001B6864330E4A13600C4B1B6842F2AC62BD
:10063C0093420BDD094B64221A6007E000BF06E011
:10064C0000BF04E000BF02E000BF00E000BF00BF3D
:10065C0080BD00BF340000208400002088000020F2
:10066C008C00002080B400AF0C4B1B6842F2AC62D3
:10067C00934204DC094B1B68B3F5617F03DA074B2B
:10068C004FF461721A60054B1A68054B1B68D31A3C
:10069C00044A136000BFBD4680BC70478400002034
:1006AC00880000208C00002080B400AF0C4B1B682D
:1006BC00B3F5167F04DB0A4B1B68B3F5165F03DD3D
:1006CC00084B4FF416721A60054B1A68064B1B68E0
:1006DC001344044A136000BFBD4680BC704700BF82
:1006EC008C000020840000208800002080B500AF22
:1006FC000B4B1B68002B10D00A4B4FF496721A60F0
:10070C00094B1B68662B02D0682B03D006E0FFF761
:10071C00A9FF03E0FFF7C8FF00E000BF00BF80BDEA
:10072C0038000020880000203400002080B500AF85
:10073C000220FFF705FD0346012B0DD1FFF7D6FF75
:10074C00064B1B68064A1360064B1B68064A13606F
:10075C00064B1B68064A136000BF80BD8400002056
:10076C004400002088000020480000208C0000205D
:10077C004C00002080B500AF1E4B1B68682B0FDCB3
:10078C00652B33DB653B032B30D801A252F823F0E9
:10079C00B9070008C3070008D5070008E7070008D9
:1007AC00FF2B23D1134B65221A6020E000F0F4FDDF
:1007BC00FFF7B0FE1BE0FFF711FEFFF7ABFEFFF7F4
:1007CC00FDFEFFF7B3FF12E0FFF708FEFFF7A2FEF6
:1007DC00FFF7F4FEFFF7AAFF09E0FFF7FFFDFFF7B5
:1007EC0099FEFFF7EBFEFFF7A1FF00E000BF00BF93
:1007FC0080BD00BF3400002080B590B000AF7860A1
:10080C00B24BFB6304237B87B04B7B6308237B8653
:10081C00AE4BFB6210237B85AC4B7B6220237B842D
:10082C00AA4BFB6140237B83A84B7B6180237B829B
:10083C00A64BFB604FF480737B817B68092B00F225
:10084C00C88101A252F823F07D080008D3080008E3
:10085C00290900087F090008D50900082B0A00089F
:10086C00810A0008DD0A0008330B0008890B000818
:10087C007B8F00221946F86B01F0ABFD7B8E0022BA
:10088C001946786B01F0A5FD7B8D00221946F86A9C
:10089C0001F09FFD7B8C00221946786A01F099FDCE
:1008AC007B8B00221946F86901F093FD7B8A0022AC
:1008BC001946786901F08DFD7B8901221946F8688B
:1008CC0001F087FD86E17B8F01221946F86B01F060
:1008DC0080FD7B8E00221946786B01F07AFD7B8DB2
:1008EC0000221946F86A01F074FD7B8C012219462E
:1008FC00786A01F06EFD7B8B01221946F86901F0D4
:10090C0068FD7B8A01221946786901F062FD7B89BA
:10091C0001221946F86801F05CFD5BE17B8F002237
:10092C001946F86B01F055FD7B8E00221946786B49
:10093C0001F04FFD7B8D01221946F86A01F049FD4B
:10094C007B8C00221946786A01F043FD7B8B0022D8
:10095C001946F86901F03DFD7B8A01221946786938
:10096C0001F037FD7B8900221946F86801F031FD52
:10097C0030E17B8F00221946F86B01F02AFD7B8E4B
:10098C0000221946786B01F024FD7B8D002219465C
:10099C00F86A01F01EFD7B8C00221946786A01F082
:1009AC0018FD7B8B01221946F86901F012FD7B8A38
:1009BC0001221946786901F00CFD7B890022194649
:1009CC00F86801F006FD05E17B8F01221946F86BF2
:1009DC0001F0FFFC7B8E00221946786B01F0F9FCCC
:1009EC007B8D00221946F86A01F0F3FC7B8C012206
:1009FC001946786A01F0EDFC7B8B01221946F869E7
:100A0C0001F0E7FC7B8A00221946786901F0E1FCD1
:100A1C007B8900221946F86801F0DBFCDAE07B8F59
:100A2C0000221946F86B01F0D4FC7B8E012219468A
:100A3C00786B01F0CEFC7B8D00221946F86A01F030
:100A4C00C8FC7B8C00221946786A01F0C2FC7B8BB7
:100A5C0001221946F86901F0BCFC7B8A0022194678
:100A6C00786901F0B6FC7B8900221946F86801F020
:100A7C00B0FCAFE07B8F00221946F86B01F0A9FCAB
:100A8C007B8E01221946786B01F0A3FC7B8D002232
:100A9C001946F86A01F09DFC7B8C00221946786A95
:100AAC0001F097FC7B8B00221946F86901F091FC50
:100ABC007B8A00221946786901F08BFC7B89002225
:100ACC001946F86801F085FC84E000BF000C014079
:100ADC007B8F00221946F86B01F07BFC7B8E002289
:100AEC001946786B01F075FC7B8D00221946F86A6B
:100AFC0001F06FFC7B8C01221946786A01F069FCCD
:100B0C007B8B01221946F86901F063FC7B8A012278
:100B1C001946786901F05DFC7B8901221946F86859
:100B2C0001F057FC56E07B8F00221946F86B01F060
:100B3C0050FC7B8E00221946786B01F04AFC7B8DB1
:100B4C0000221946F86A01F044FC7B8C00221946FD
:100B5C00786A01F03EFC7B8B00221946F86901F0A3
:100B6C0038FC7B8A00221946786901F032FC7B89BB
:100B7C0000221946F86801F02CFC2BE07B8F002238
:100B8C001946F86B01F025FC7B8E00221946786B18
:100B9C0001F01FFC7B8D00221946F86A01F019FC4C
:100BAC007B8C00221946786A01F013FC7B8B0122A6
:100BBC001946F86901F00DFC7B8A00221946786908
:100BCC0001F007FC7B8900221946F86801F001FC52
:100BDC0000E000BF00BF4037BD4680BD80B590B07F
:100BEC0000AF7860B54BFB634FF400737B87B34B5E
:100BFC007B634FF480637B86B04BFB624FF40063E6
:100C0C007B85AE4B7B624FF480537B84AB4BFB619B
:100C1C004FF400537B83A94B7B614FF480437B8261
:100C2C00A64BFB604FF400437B817B68092B00F2E1
:100C3C00C88101A252F823F06D0C0008C30C000807
:100C4C00190D00086F0D0008C50D00081B0E0008DB
:100C5C00710E0008CD0E0008230F0008790F000854
:100C6C007B8F00221946F86B01F0B3FB7B8E0022C0
:100C7C001946786B01F0ADFB7B8D00221946F86AA2
:100C8C0001F0A7FB7B8C00221946786A01F0A1FBCE
:100C9C007B8B00221946F86901F09BFB7B8A0022B2
:100CAC001946786901F095FB7B8901221946F86891
:100CBC0001F08FFB86E17B8F01221946F86B01F066
:100CCC0088FB7B8E00221946786B01F082FB7B8DB2
:100CDC0000221946F86A01F07CFB7B8C0122194634
:100CEC00786A01F076FB7B8B01221946F86901F0DA
:100CFC0070FB7B8A01221946786901F06AFB7B89BB
:100D0C0001221946F86801F064FB5BE17B8F00223D
:100D1C001946F86B01F05DFB7B8E00221946786B4F
:100D2C0001F057FB7B8D01221946F86A01F051FB4B
:100D3C007B8C00221946786A01F04BFB7B8B0022DE
:100D4C001946F86901F045FB7B8A0122194678693E
:100D5C0001F03FFB7B8900221946F86801F039FB52
:100D6C0030E17B8F00221946F86B01F032FB7B8E51
:100D7C0000221946786B01F02CFB7B8D0022194662
:100D8C00F86A01F026FB7B8C00221946786A01F088
:100D9C0020FB7B8B01221946F86901F01AFB7B8A38
:100DAC0001221946786901F014FB7B89002219464F
:100DBC00F86801F00EFB05E17B8F01221946F86BF8
:100DCC0001F007FB7B8E00221946786B01F001FBCA
:100DDC007B8D00221946F86A01F0FBFA7B8C01220C
:100DEC001946786A01F0F5FA7B8B01221946F869ED
:100DFC0001F0EFFA7B8A00221946786901F0E9FAD2
:100E0C007B8900221946F86801F0E3FADAE07B8F5F
:100E1C0000221946F86B01F0DCFA7B8E0122194690
:100E2C00786B01F0D6FA7B8D00221946F86A01F036
:100E3C00D0FA7B8C00221946786A01F0CAFA7B8BB7
:100E4C0001221946F86901F0C4FA7B8A002219467E
:100E5C00786901F0BEFA7B8900221946F86801F026
:100E6C00B8FAAFE07B8F00221946F86B01F0B1FAAB
:100E7C007B8E01221946786B01F0ABFA7B8D002238
:100E8C001946F86A01F0A5FA7B8C00221946786A9B
:100E9C0001F09FFA7B8B00221946F86901F099FA50
:100EAC007B8A00221946786901F093FA7B8900222B
:100EBC001946F86801F08DFA84E000BF000C01407F
:100ECC007B8F00221946F86B01F083FA7B8E00228F
:100EDC001946786B01F07DFA7B8D00221946F86A71
:100EEC0001F077FA7B8C01221946786A01F071FACD
:100EFC007B8B01221946F86901F06BFA7B8A01227F
:100F0C001946786901F065FA7B8901221946F8685F
:100F1C0001F05FFA56E07B8F00221946F86B01F066
:100F2C0058FA7B8E00221946786B01F052FA7B8DB1
:100F3C0000221946F86A01F04CFA7B8C0022194603
:100F4C00786A01F046FA7B8B00221946F86901F0A9
:100F5C0040FA7B8A00221946786901F03AFA7B89BB
:100F6C0000221946F86801F034FA2BE07B8F00223E
:100F7C001946F86B01F02DFA7B8E00221946786B1E
:100F8C0001F027FA7B8D00221946F86A01F021FA4C
:100F9C007B8C00221946786A01F01BFA7B8B0122AC
:100FAC001946F86901F015FA7B8A0022194678690E
:100FBC0001F00FFA7B8900221946F86801F009FA52
:100FCC0000E000BF00BF4037BD4680BD80B582B099
:100FDC0000AF786039603B68444A934204D03B6868
:100FEC00434A93423FD07DE07B68202B29D07B681D
:100FFC00202B36DC7B681E2B03D07B681F2B10D07C
:10100C002FE0002202213B4801F0E3F901220421E8
:10101C00384801F0DEF901220821364801F0D9F9EF
:10102C0020E001220221334801F0D3F900220421EF
:10103C00304801F0CEF9012208212E4801F0C9F9FF
:10104C0010E0012202212B4801F0C3F901220421F6
:10105C00284801F0BEF900220821264801F0B9F910
:10106C0000E000BF3EE07B68202B29D07B68202B62
:10107C0036DC7B681E2B03D07B681F2B10D02FE037
:10108C00002210211B4801F0A4F90122202119484B
:10109C0001F09FF901224021164801F09AF920E055
:1010AC0001221021134801F094F90022202111484B
:1010BC0001F08FF9012240210E4801F08AF910E06D
:1010CC00012210210B4801F084F90122202109484A
:1010DC0001F07FF900224021064801F07AF900E086
:1010EC0000BF00BF00BF0837BD4680BD15CD5B07F4
:1010FC00B168DE3A0008014080B400AF104B1B68A9
:10110C00104A82FB03125211DB17D31A0E4A1360DA
:10111C000E4B1B680B4A82FB03125211DB17D31ABE
:10112C000B4A13600B4B1B68064A82FB03125211CD
:10113C00DB17D31A084A136000BFBD4680BC70474A
:10114C00440000201F85EB51900000204800002037
:10115C00940000204C0000209800002080B400AFC8
:10116C00164B1B68002B09DC154B1B68154A82FBC0
:10117C0003125211DB17D31A104A1360124B1B685F
:10118C00002B09DC114B1B680E4A82FB0312521117
:10119C00DB17D31A0C4A13600D4B1B68002B09DCB0
:1011AC000C4B1B68074A82FB03125211DB17D31A34
:1011BC00074A136000BFBD4680BC704790000020FA
:1011CC00440000201F85EB519400002048000020B3
:1011DC00980000204C00002080B485B000AFF8606F
:1011EC00B9607A60FB680D4A82FB03129210DB1720
:1011FC00D21ABB681A60F968084B83FB01239A105A
:10120C00CB17D21A13469B0013445B00CA1A7B6897
:10121C001A6000BF1437BD4680BC704767666666AF
:10122C0080B582B000AF786039607B68154A934214
:10123C0004D07B68144A93420ED01EE0134B9B687B
:10124C00012B17D13B681B685A1E3B681A600221A0
:10125C00642000F09BFC0DE00C4BDB68012B0BD1E8
:10126C003B681B685A1E3B681A600321642000F01F
:10127C008DFC01E000BF00E000BF00BF0837BD4699
:10128C0080BD00BF15CD5B07B168DE3AE8000020D9
:10129C0080B500AF0C4B1B69012B12D10B4B1B689B
:1012AC00002B02D0012B04D007E0084B01221A605E
:1012BC0003E0064B00221A6000BF0421322000F02C
:1012CC0065FC00BF80BD00BFE80000209C00002032
:1012DC0080B584B000AFF860B9607A607B682A4A48
:1012EC00934204D07B68294A934224D047E0284B90
:1012FC001B68002B02D0012B0ED01BE00022012119
:10130C00244801F066F801220221224801F061F81C
:10131C00F868FFF771FA0DE0012201211D4801F078
:10132C0058F8002202211B4801F053F8B868FFF767
:10133C0063FA00BF23E0164B1B68002B02D0012B75
:10134C000ED01BE000220121124801F042F80122CC
:10135C000221104801F03DF8F868FFF73FFC0DE062
:10136C00012201210B4801F034F800220221094826
:10137C0001F02FF8B868FFF731FC00BF00BF00BFC9
:10138C001037BD4680BD00BF15CD5B07B168DE3A96
:10139C009C000020000C014080B584B000AFB64B1F
:1013AC00FB600023BB6000237B60FB68B24A934266
:1013BC0005D0FB68B14A934200F04C81AEE2B04BD1
:1013CC001B68FF2B0CD0FF2B00F39D80202B72D0C1
:1013DC00202B00F398801E2B1DD01F2B43D092E0A6
:1013EC00A5491E20FFF7F2FDA54B1E221A60FFF740
:1013FC0083FEA44B00221A60A34B1B6800211846E5
:10140C0000F0C4FB0221642000F0C0FB0421322058
:10141C0000F0BCFB78E098491E20FFF7D7FDFFF7E2
:10142C009DFE9A4B1B683A1D07F108011846FFF701
:10143C00D3FEBB687968904A1846FFF749FF944B76
:10144C001B68012B08D18E4B20221A60914B1B6814
:10145C000021184600F09AFB8C498748FFF7E0FE04
:10146C00FFF716FF50E084491F20FFF7AFFDFFF791
:10147C0075FE894B1B683A1D07F108011846FFF7EA
:10148C00ABFEBB6879687C4A1846FFF721FF804B9E
:10149C001B68012B08D17A4B1E221A607A4B1B68F1
:1014AC000021184600F072FB7B497348FFF7B8FE29
:1014BC00FFF7EEFE28E070492020FFF787FDFFF7CD
:1014CC004DFE764B1B683A1D07F108011846FFF7D5
:1014DC0083FEBB687968684A1846FFF7F9FE6C4BC7
:1014EC001B68012B08D1664B1F221A606C4B1B68C2
:1014FC000021184600F04AFB68495F48FFF790FE50
:10150C00FFF7C6FE00E000BF664B1B68FF2B0CD03C
:10151C00FF2B00F39D80202B72D0202B00F39880A2
:10152C001E2B1DD01F2B43D092E054492020FFF7D7
:10153C004DFD5C4B20221A60FFF7DEFD514B002263
:10154C001A60544B1B680121184600F01FFB032145
:10155C00642000F01BFB0421322000F017FB78E024
:10156C0046491E20FFF732FDFFF7F8FD474B1B687D
:10157C003A1D07F108011846FFF72EFEBB68796883
:10158C003E4A1846FFF7A4FE414B5B68012B08D17D
:10159C00444B20221A603F4B1B680121184600F077
:1015AC00F5FA3A493548FFF73BFEFFF771FE50E07C
:1015BC0032491F20FFF70AFDFFF7D0FD364B1B68A1
:1015CC003A1D07F108011846FFF706FEBB6879685B
:1015DC002A4A1846FFF77CFE2D4B5B68012B08D17D
:1015EC00304B1E221A60284B1B680121184600F054
:1015FC00CDFA29492148FFF713FEFFF749FE28E0F1
:10160C001E492020FFF7E2FCFFF7A8FD234B1B68C7
:10161C003A1D07F108011846FFF7DEFDBB68796833
:10162C00164A1846FFF754FE194B5B68012B08D17C
:10163C001C4B1F221A601A4B1B680121184600F024
:10164C00A5FA16490D48FFF7EBFDFFF721FE00E068
:10165C0000BF63E10A4B1B68FF2B25D0FF2B00F367
:10166C00B680202B00F08B80202B00F3B0801E2B3B
:10167C0035D01F2B5BD0AAE015CD5B07B168DE3AE5
:10168C003C0000209C000020440000209000002022
:10169C00E80000204C00002094000020980000205E
:1016AC0048000020400000209E492020FFF78EFCBF
:1016BC009D4B20221A60FFF71FFD9C4B00221A60E5
:1016CC009B4B1B680021184600F060FA0221642035
:1016DC0000F05CFA0421322000F058FA78E09149CD
:1016EC001E20FFF773FCFFF739FD924B1B683A1D68
:1016FC0007F108011846FFF76FFDBB687968894A46
:10170C001846FFF7E5FD8C4B1B68012B08D1864B67
:10171C0020221A60864B1B680021184600F036FA0E
:10172C0084498048FFF77CFDFFF7B2FD50E07D490E
:10173C001F20FFF74BFCFFF711FD804B1B683A1D78
:10174C0007F108011846FFF747FDBB687968754A31
:10175C001846FFF7BDFD784B1B68012B08D1724B67
:10176C001E221A60764B1B680021184600F00EFAF8
:10177C0072496C48FFF754FDFFF78AFD28E0694970
:10178C002020FFF723FCFFF7E9FC6E4B1B683A1D8A
:10179C0007F108011846FFF71FFDBB687968614A1D
:1017AC001846FFF795FD644B1B68012B08D15E4B67
:1017BC001F221A60644B1B680021184600F0E6F9E2
:1017CC0060495848FFF72CFDFFF762FD00E000BFB1
:1017DC005E4B1B68FF2B0CD0FF2B00F39D80202B46
:1017EC0072D0202B00F398801E2B1DD01F2B43D0C2
:1017FC0092E057491E20FFF7E9FB544B1E221A605A
:10180C00FFF77AFC494B00221A604D4B1B680121F3
:10181C00184600F0BBF90321642000F0B7F904214D
:10182C00322000F0B3F978E049491E20FFF7CEFBD7
:10183C00FFF794FC3F4B1B683A1D07F10801184653
:10184C00FFF7CAFCBB687968414A1846FFF740FDB0
:10185C00394B5B68012B08D13C4B20221A60344B6E
:10186C001B680121184600F091F932493848FFF7FE
:10187C00D7FCFFF70DFD50E035491F20FFF7A6FB05
:10188C00FFF76CFC2D4B1B683A1D07F1080118463D
:10189C00FFF7A2FCBB6879682D4A1846FFF718FDC4
:1018AC00254B5B68012B08D1284B1E221A60244B58
:1018BC001B680121184600F069F920492448FFF7FC
:1018CC00AFFCFFF7E5FC28E021492020FFF77EFB69
:1018DC00FFF744FC1B4B1B683A1D07F10801184627
:1018EC00FFF77AFCBB687968194A1846FFF7F0FCD9
:1018FC00114B5B68012B08D1144B1F221A60124B41
:10190C001B680121184600F041F90E491048FFF7F9
:10191C0087FCFFF7BDFC00E000BF00BF00BF103725
:10192C00BD4680BD15CD5B073C0000209C0000200F
:10193C004C00002090000020E800002094000020C3
:10194C0044000020980000204800002040000020A7
:10195C00B168DE3A80B500AF00F016FA00F00CF872
:10196C0000F092F800F044F8024801F09BF9FEF701
:10197C0001FFFCE73001002080B590B000AF07F10B
:10198C00180328220021184601F044FD3B1D0022BB
:10199C001A605A609A60DA601A610223BB610123F3
:1019AC00BB621023FB6200237B6307F1180318460C
:1019BC0000F040FD0346002B01D000F0E1F80F23AE
:1019CC007B600023BB600023FB6000233B61002392
:1019DC007B613B1D0021184600F0ACFF0346002B39
:1019EC0001D000F0CDF800BF4037BD4680BD0000EF
:1019FC0080B586B000AF07F1080300221A605A6068
:101A0C009A60DA603B4600221A605A601D4B4FF018
:101A1C0080421A601B4B41F63F725A60194B0022F0
:101A2C009A60184B0922DA60164B00221A61154B8A
:101A3C0000229A61134801F0E5F80346002B01D00F
:101A4C0000F09EF84FF48053BB6007F10803194671
:101A5C000C4801F07BFA0346002B01D000F090F803
:101A6C0000233B6000237B603B461946054801F090
:101A7C0043FC0346002B01D000F082F800BF18375E
:101A8C00BD4680BD3001002080B588B000AF07F1A5
:101A9C00100300221A605A609A60DA602E4B9B6920
:101AAC002D4A43F0100393612B4B9B6903F01003F9
:101ABC00FB60FB68284B9B69274A43F00403936146
:101ACC00254B9B6903F00403BB60BB68224B9B69ED
:101ADC00214A43F0080393611F4B9B6903F00803F1
:101AEC007B607B6800227E211C4800F072FC002287
:101AFC004FF6FF711A4800F06CFC4FF460433B61E9
:101B0C0000237B610123BB6107F1100319461548C3
:101B1C0000F0CEFA7E233B6101237B610023BB6185
:101B2C000223FB6107F1100319460C4800F0C0FAC0
:101B3C004FF6FF733B6101237B610023BB610223E2
:101B4C00FB6107F110031946054800F0B1FA00BF1C
:101B5C002037BD4680BD00BF001002400008014088
:101B6C00000C01400010014080B582B000AF7860DD
:101B7C0000F024F8FEF73CFB00BF0837BD4680BDE3
:101B8C0080B400AF72B600BFFEE7000080B483B033
:101B9C0000AF7860396007493B687A6841F82320C8
:101BAC00054A3B68002142F8231000BF0C37BD46A4
:101BBC0080BC7047A0000020E800002080B483B0F7
:101BCC0000AF00237B601CE0134A7B6852F8233083
:101BDC00002B13DD104A7B6852F823305A1E0E4935
:101BEC007B6841F823200C4A7B6852F82330002B89
:101BFC0004DC0A4A7B68012142F823107B6801331C
:101C0C007B6012227B689342DEDB00BF00BF0C3787
:101C1C00BD4680BC704700BFA0000020E80000203B
:101C2C0080B485B000AF154B9B69144A43F0010397
:101C3C009361124B9B6903F00103BB60BB680F4BB4
:101C4C00DB690E4A43F08053D3610C4BDB6903F024
:101C5C0080537B607B680A4B5B68FB60FB6823F0FE
:101C6C00E063FB60FB6843F08063FB60044AFB6845
:101C7C00536000BF1437BD4680BC70470010024053
:101C8C000000014080B584B000AF78607B681B68B1
:101C9C00B3F1804F13D10C4BDB690B4A43F00103BA
:101CAC00D361094BDB6903F00103FB60FB68002285
:101CBC0000211C2000F0C5F91C2000F0DEF900BF4B
:101CCC001037BD4680BD00BF0010024080B400AF8D
:101CDC00FEE780B400AFFEE780B400AFFEE780B44F
:101CEC0000AFFEE780B400AFFEE780B400AF00BFEA
:101CFC00BD4680BC704780B400AF00BFBD4680BC01
:101D0C00704780B400AF00BFBD4680BC704780B543
:101D1C0000AF00F07FF800BF80BD000080B500AFC1
:101D2C00024801F00BF800BF80BD00BF300100205D
:101D3C0080B400AF00BFBD4680BC70470C480D4955
:101D4C000D4A002302E0D458C4500433C4188C420A
:101D5C00F9D30A4A0A4C002301E013600432A24270
:101D6C00FBD3FFF7E5FF01F031FBFFF7F3FD704705
:101D7C00000000205C000020703400085C00002093
:101D8C007C010020FEE7000080B500AF084B1B680B
:101D9C00074A43F010031360032000F047F90F20AB
:101DAC0000F008F8FFF73CFF0023184680BD00BF89
:101DBC000020024080B582B000AF7860124B1A68E8
:101DCC00124B1B7819464FF47A73B3FBF1F3B2FB49
:101DDC00F3F3184600F05FF90346002B01D0012302
:101DEC000EE07B680F2B0AD8002279684FF0FF3089
:101DFC0000F027F9064A7B681360002300E00123FA
:101E0C0018460837BD4680BD500000205800002001
:101E1C005400002080B400AF054B1B781A46054BCC
:101E2C001B681344034A136000BFBD4680BC704757
:101E3C00580000207801002080B400AF024B1B68D2
:101E4C001846BD4680BC70477801002080B584B030
:101E5C0000AF7860FFF7F0FFB8607B68FB60FB6851
:101E6C00B3F1FF3F05D00A4B1B781A46FB681344AD
:101E7C00FB6000BFFFF7E0FF0246BB68D31AFA68AD
:101E8C009A42F7D800BF00BF1037BD4680BD00BFD7
:101E9C005800002080B485B000AF78607B6803F0F8
:101EAC000703FB600C4BDB68BB60BA684FF6FF03A3
:101EBC001340BB60FB681A02BB68134343F0BF635B
:101ECC0043F40033BB60044ABB68D36000BF1437D3
:101EDC00BD4680BC704700BF00ED00E080B400AF91
:101EEC00044BDB681B0A03F007031846BD4680BC95
:101EFC00704700BF00ED00E080B483B000AF034634
:101F0C00FB7197F90730002B0BDBFB7903F01F02F9
:101F1C00064997F907305B09012000FA02F241F8F3
:101F2C00232000BF0C37BD4680BC704700E100E0A9
:101F3C0080B483B000AF03463960FB7197F907306A
:101F4C00002B0ADB3B68DAB20C4997F90730120117
:101F5C00D2B20B4483F800230AE03B68DAB208499A
:101F6C00FB7903F00F03043B1201D2B20B441A7637
:101F7C0000BF0C37BD4680BC704700BF00E100E0DD
:101F8C0000ED00E080B489B000AFF860B9607A6011
:101F9C00FB6803F00703FB61FB69C3F10703042B28
:101FAC0028BF0423BB61FB690433062B02D9FB69F0
:101FBC00033B00E000237B614FF0FF32BB6902FA68
:101FCC0003F3DA43BB681A407B699A404FF0FF3148
:101FDC007B6901FA03F3D9437B680B401343184622
:101FEC002437BD4680BC704780B582B000AF7860A6
:101FFC007B68013BB3F1807F01D301230FE00A4AD8
:10200C007B68013B53600F214FF0FF30FFF790FFCF
:10201C00054B00229A60044B07221A6000231846D5
:10202C000837BD4680BD00BF10E000E080B582B02F
:10203C0000AF78607868FFF72DFF00BF0837BD460A
:10204C0080BD80B586B000AF0346B9607A60FB7383
:10205C0000237B61FFF742FF78617A68B968786981
:10206C00FFF790FF024697F90F3011461846FFF71D
:10207C005FFF00BF1837BD4680BD80B582B000AF92
:10208C000346FB7197F907301846FFF735FF00BF81
:10209C000837BD4680BD80B582B000AF78607868E7
:1020AC00FFF7A2FF034618460837BD4680BD000067
:1020BC0080B48BB000AF7860396000237B62002362
:1020CC003B6248E101227B6A02FA03F3FB613B6845
:1020DC001B68FA691340BB61BA69FB699A4240F00C
:1020EC0037813B685B68A34A93425ED0A14A934216
:1020FC0075D8A14A934258D09F4A93426FD89F4AB1
:10210C00934252D09D4A934269D89D4A93424CD0F7
:10211C009B4A934263D89B4A934246D0994A934236
:10212C005DD8122B2AD8122B59D801A252F823F0C1
:10213C00B721000891210008A3210008E52100081F
:10214C00EB210008EB210008EB210008EB21000833
:10215C00EB210008EB210008EB210008EB21000823
:10216C00EB210008EB210008EB210008EB21000813
:10217C00EB21000899210008AD210008824A934206
:10218C0013D02CE03B68DB683B6229E03B68DB68E2
:10219C0004333B6224E03B68DB6808333B621FE09E
:1021AC003B68DB680C333B621AE03B689B68002B96
:1021BC0002D104233B6213E03B689B68012B05D1E1
:1021CC0008233B627B68FA691A6109E008233B62C9
:1021DC007B68FA695A6103E000233B6200E000BFB0
:1021EC00BB69FF2B01D87B6801E07B6804337B6102
:1021FC00BB69FF2B02D87B6A9B0002E07B6A083B21
:10220C009B003B617B691A680F213B6901FA03F360
:10221C00DB431A40396A3B6901FA03F31A437B69C1
:10222C001A603B685B6803F08053002B00F09080D1
:10223C00564B9B69554A43F001039361534B9B6981
:10224C0003F00103BB60BB68514A7B6A9B080233F5
:10225C0052F82330FB607B6A03F003039B000F22D0
:10226C0002FA03F3DB43FA681340FB607B68494ACC
:10227C0093420DD07B68484A934207D07B68474A0B
:10228C00934201D1022304E0032302E0012300E086
:10229C0000237A6A02F0030292009340FA68134317
:1022AC00FB603B497B6A9B080233FA6841F82320A8
:1022BC003B685B6803F48033002B06D0384B1A68FC
:1022CC003749BB6913430B6006E0354B1A68BB6991
:1022DC00DB43334913400B603B685B6803F400330A
:1022EC00002B06D02E4B5A682D49BB6913434B600B
:1022FC0006E02B4B5A68BB69DB43294913404B6002
:10230C003B685B6803F48013002B06D0244B9A685F
:10231C002349BB6913438B6006E0214B9A68BB6968
:10232C00DB431F4913408B603B685B6803F400136D
:10233C00002B06D01A4BDA681949BB691343CB60E2
:10234C0006E0174BDA68BB69DB4315491340CB60D9
:10235C007B6A01337B623B681A687B6A22FA03F35F
:10236C00002B7FF4AFAE00BF00BF2C37BD4680BC46
:10237C00704700BF00003210000031100000221026
:10238C00000021100000121000001110001002407B
:10239C000000014000080140000C01400010014009
:1023AC000004014080B485B000AF78600B467B80A0
:1023BC007B689A687B881340002B02D00123FB7347
:1023CC0001E00023FB73FB7B18461437BD4680BC31
:1023DC00704780B483B000AF78600B467B801346A7
:1023EC007B707B78002B03D07A887B681A6103E0C2
:1023FC007B881A047B681A6100BF0C37BD4680BC11
:10240C00704780B485B000AF78600B467B807B68EA
:10241C00DB68FB607A88FB6813401A04FB68D943BD
:10242C007B880B401A437B681A6100BF1437BD468A
:10243C0080BC704780B586B000AF78607B68002B9D
:10244C0001D101236CE27B681B6803F00103002BB4
:10245C0000F08780924B5B6803F00C03042B0CD0CC
:10246C008F4B5B6803F00C03082B12D18C4B5B6811
:10247C0003F48033B3F5803F0BD1894B1B6803F415
:10248C000033002B6CD07B685B68002B68D1012378
:10249C0046E27B685B68B3F5803F06D1804B1B68D6
:1024AC007F4A43F4803313602EE07B685B68002B1B
:1024BC000CD17B4B1B687A4A23F480331360784B26
:1024CC001B68774A23F4802313601DE07B685B68EC
:1024DC00B3F5A02F0CD1724B1B68714A43F48023C7
:1024EC0013606F4B1B686E4A43F4803313600BE030
:1024FC006B4B1B686A4A23F480331360684B1B6870
:10250C00674A23F4802313607B685B68002B13D02D
:10251C00FFF792FC386108E0FFF78EFC02463B693E
:10252C00D31A642B01D90323FAE15D4B1B6803F426
:10253C000033002BF0D014E0FFF77EFC386108E08C
:10254C00FFF77AFC02463B69D31A642B01D90323AB
:10255C00E6E1534B1B6803F40033002BF0D100E091
:10256C0000BF7B681B6803F00203002B63D04C4B4D
:10257C005B6803F00C03002B0BD0494B5B6803F03A
:10258C000C03082B1CD1464B5B6803F48033002BE7
:10259C0016D1434B1B6803F00203002B05D07B685C
:1025AC001B69012B01D00123BAE13D4B1B6823F0C1
:1025BC00F8027B685B69DB00394913430B603AE036
:1025CC007B681B69002B20D0364B01221A60FFF769
:1025DC0033FC386108E0FFF72FFC02463B69D31A45
:1025EC00022B01D903239BE12D4B1B6803F0020343
:1025FC00002BF0D02A4B1B6823F0F8027B685B6938
:10260C00DB00274913430B6015E0264B00221A60B0
:10261C00FFF712FC386108E0FFF70EFC02463B693D
:10262C00D31A022B01D903237AE11D4B1B6803F04B
:10263C000203002BF0D17B681B6803F00803002B0E
:10264C003AD07B689B69002B19D0174B01221A607A
:10265C00FFF7F2FB386108E0FFF7EEFB02463B693F
:10266C00D31A022B01D903235AE10D4B5B6A03F0F9
:10267C000203002BF0D0012000F0A6FA1CE00A4B5C
:10268C0000221A60FFF7D8FB38610FE0FFF7D4FB8C
:10269C0002463B69D31A022B08D9032340E100BF41
:1026AC000010024000004242800442429E4B5B6A92
:1026BC0003F00203002BE9D17B681B6803F00403D1
:1026CC00002B00F0A6800023FB75974BDB6903F011
:1026DC008053002B0DD1944BDB69934A43F080530C
:1026EC00D361914BDB6903F08053BB60BB68012362
:1026FC00FB758E4B1B6803F48073002B18D18B4B2E
:10270C001B688A4A43F480731360FFF795FB3861AA
:10271C0008E0FFF791FB02463B69D31A642B01D901
:10272C000323FDE0814B1B6803F48073002BF0D076
:10273C007B68DB68012B06D17B4B1B6A7A4A43F022
:10274C00010313622DE07B68DB68002B0CD1764B08
:10275C001B6A754A23F001031362734B1B6A724A9E
:10276C0023F0040313621CE07B68DB68052B0CD19F
:10277C006D4B1B6A6C4A43F0040313626A4B1B6A71
:10278C00694A43F0010313620BE0674B1B6A664A0C
:10279C0023F001031362644B1B6A634A23F00403A6
:1027AC0013627B68DB68002B15D0FFF745FB3861A3
:1027BC000AE0FFF741FB02463B69D31A41F288322B
:1027CC00934201D90323ABE0574B1B6A03F002037E
:1027DC00002BEED014E0FFF72FFB38610AE0FFF777
:1027EC002BFB02463B69D31A41F28832934201D942
:1027FC00032395E04C4B1B6A03F00203002BEED134
:10280C00FB7D012B05D1484BDB69474A23F08053F4
:10281C00D3617B68DB69002B00F08180424B5B68E5
:10282C0003F00C03082B61D07B68DB69022B46D1CB
:10283C003F4B00221A60FFF7FFFA386108E0FFF700
:10284C00FBFA02463B69D31A022B01D9032367E03A
:10285C00354B1B6803F00073002BF0D17B681B6AAF
:10286C00B3F5803F08D1304B5B6823F400327B68B2
:10287C009B682D4913434B602B4B5B6823F47412FC
:10288C007B68196A7B685B6A0B43274913434B606F
:10289C00274B01221A60FFF7CFFA386108E0FFF7E7
:1028AC00CBFA02463B69D31A022B01D9032337E03A
:1028BC001D4B1B6803F00073002BF0D02FE01C4B5A
:1028CC0000221A60FFF7B8FA386108E0FFF7B4FA93
:1028DC0002463B69D31A022B01D9032320E0124B89
:1028EC001B6803F00073002BF0D118E07B68DB69E8
:1028FC00012B01D1012313E00B4B5B68FB60FB68E0
:10290C0003F480327B681B6A9A4206D1FB6803F49D
:10291C0070127B685B6A9A4201D0012300E00023AD
:10292C0018461837BD4680BD0010024000700040AC
:10293C006000424280B584B000AF786039607B683B
:10294C00002B01D10123D0E06A4B1B6803F0070375
:10295C003A689A4210D9674B1B6823F00702654905
:10296C003B6813430B60634B1B6803F007033A6827
:10297C009A4201D00123B8E07B681B6803F0020384
:10298C00002B20D07B681B6803F00403002B05D0C0
:10299C00594B5B68584A43F4E06353607B681B688F
:1029AC0003F00803002B05D0534B5B68524A43F4E9
:1029BC0060535360504B5B6823F0F0027B689B685C
:1029CC004D4913434B607B681B6803F00103002BDC
:1029DC0040D07B685B68012B07D1474B1B6803F425
:1029EC000033002B15D101237FE07B685B68022B41
:1029FC0007D1414B1B6803F00073002B09D1012355
:102A0C0073E03D4B1B6803F00203002B01D1012343
:102A1C006BE0394B5B6823F003027B685B683649DB
:102A2C0013434B60FFF708FAF8600AE0FFF704FA6B
:102A3C000246FB68D31A41F28832934201D9032330
:102A4C0053E02D4B5B6803F00C027B685B689B00CA
:102A5C009A42EBD1274B1B6803F007033A689A4262
:102A6C0010D2244B1B6823F0070222493B68134306
:102A7C000B60204B1B6803F007033A689A4201D0A5
:102A8C00012332E07B681B6803F00403002B08D0A1
:102A9C00194B5B6823F4E0627B68DB6816491343CF
:102AAC004B607B681B6803F00803002B09D0124BAA
:102ABC005B6823F460527B681B69DB000E4913438F
:102ACC004B6000F021F802460B4B5B681B0903F0CE
:102ADC000F030A49CB5C22FA03F3094A1360094B32
:102AEC001B681846FFF766F9002318461037BD46D9
:102AFC0080BD00BF00200240001002405834000886
:102B0C00500000205400002090B48AB000AF2A4B33
:102B1C003C1D0FCB84E80F0040F201233B800023C7
:102B2C00FB610023BB6100237B6200237B610023DC
:102B3C003B62224B5B68FB61FB6903F00C03042BCB
:102B4C0002D0082B03D02DE01D4B3B622DE0FB691E
:102B5C009B0C03F00F0307F12802134413F8243CD9
:102B6C007B61FB6903F48033002B13D0134B5B6840
:102B7C005B0C03F0010307F12802134413F8283C03
:102B8C00BB617B690E4A02FB03F2BB69B2FBF3F338
:102B9C007B6204E07B690B4A02FB03F37B627B6A7A
:102BAC003B6202E0064B3B6200BF3B6A184628378B
:102BBC00BD4690BC704700BF48340008001002406E
:102BCC0000127A0000093D0080B485B000AF786037
:102BDC000A4B1B680A4AA2FB03235B0A7A6802FBB6
:102BEC0003F3FB6000BFFB685A1EFA60002BF9D19F
:102BFC0000BF00BF1437BD4680BC7047500000209A
:102C0C00D34D621080B582B000AF78607B68002B2A
:102C1C0001D1012341E07B6893F83D30DBB2002BFE
:102C2C0006D17B68002283F83C207868FFF72AF8ED
:102C3C007B68022283F83D207B681A687B6804332A
:102C4C001946104600F06AFA7B68012283F8462088
:102C5C007B68012283F83E207B68012283F83F20A9
:102C6C007B68012283F840207B68012283F8412095
:102C7C007B68012283F842207B68012283F8432081
:102C8C007B68012283F844207B68012283F845206D
:102C9C007B68012283F83D20002318460837BD4687
:102CAC0080BD000080B485B000AF78607B6893F87D
:102CBC003D30DBB2012B01D0012335E07B680222D1
:102CCC0083F83D207B681B68DA687B681B6842F0E0
:102CDC000102DA607B681B68164A934209D07B6854
:102CEC001B68B3F1804F04D07B681B68124A934277
:102CFC0011D17B681B689B6803F00703FB60FB68C2
:102D0C00062B10D07B681B681A687B681B6842F026
:102D1C0001021A6007E07B681B681A687B681B68F5
:102D2C0042F001021A60002318461437BD4680BCDD
:102D3C00704700BF002C01400004004080B582B0F9
:102D4C0000AF78607B681B681B6903F00203022BE1
:102D5C0022D17B681B68DB6803F00203022B1BD1BA
:102D6C007B681B686FF002021A617B6801221A777C
:102D7C007B681B689B6903F00303002B03D0786806
:102D8C0000F0B1F905E0786800F0A4F9786800F07B
:102D9C00B3F97B6800221A777B681B681B6903F008
:102DAC000403042B22D17B681B68DB6803F004034B
:102DBC00042B1BD17B681B686FF004021A617B68C3
:102DCC0002221A777B681B689B6903F44073002B03
:102DDC0003D0786800F087F905E0786800F07AF99C
:102DEC00786800F089F97B6800221A777B681B6889
:102DFC001B6903F00803082B22D17B681B68DB6876
:102E0C0003F00803082B1BD17B681B686FF00802CA
:102E1C001A617B6804221A777B681B68DB6903F0F4
:102E2C000303002B03D0786800F05DF905E07868A7
:102E3C0000F050F9786800F05FF97B6800221A778F
:102E4C007B681B681B6903F01003102B22D17B6875
:102E5C001B68DB6803F01003102B1BD17B681B680D
:102E6C006FF010021A617B6808221A777B681B6866
:102E7C00DB6903F44073002B03D0786800F033F95E
:102E8C0005E0786800F026F9786800F035F97B6881
:102E9C0000221A777B681B681B6903F00103012B66
:102EAC000ED17B681B68DB6803F00103012B07D193
:102EBC007B681B686FF001021A617868FEF754FE9C
:102ECC007B681B681B6903F08003802B0ED17B6829
:102EDC001B68DB6803F08003802B07D17B681B68C1
:102EEC006FF080021A61786800F067FA7B681B68E3
:102EFC001B6903F04003402B0ED17B681B68DB6819
:102F0C0003F04003402B07D17B681B686FF0400235
:102F1C001A61786800F0F9F87B681B681B6903F08C
:102F2C002003202B0ED17B681B68DB6803F0200389
:102F3C00202B07D17B681B686FF020021A61786820
:102F4C0000F032FA00BF0837BD4680BD80B584B0B2
:102F5C0000AF786039607B6893F83C30012B01D16D
:102F6C000223B3E07B68012283F83C207B680222B9
:102F7C0083F83D207B681B689B68FB60FB6823F033
:102F8C007703FB60FB6823F47F43FB607B681B6863
:102F9C00FA689A603B681B68B3F5005F3ED0B3F5E6
:102FAC00005F00F28780B3F5805F00F08580B3F599
:102FBC00805F7FD8702B1AD0702B7BD8602B50D0B1
:102FCC00602B77D8502B3CD0502B73D8402B58D03B
:102FDC00402B6FD8302B64D0302B6BD8202B60D08B
:102FEC00202B67D8002B5CD0102B5AD062E07B686A
:102FFC0018683B6899683B685A683B68DB6800F066
:10300C005CF97B681B689B68FB60FB6843F077038B
:10301C00FB607B681B68FA689A604EE07B681868F6
:10302C003B6899683B685A683B68DB6800F045F977
:10303C007B681B689A687B681B6842F480429A60C4
:10304C003BE07B6818683B6859683B68DB681A464C
:10305C0000F0BCF87B681B685021184600F013F98F
:10306C002BE07B6818683B6859683B68DB681A463C
:10307C0000F0DAF87B681B686021184600F003F951
:10308C001BE07B6818683B6859683B68DB681A462C
:10309C0000F09CF87B681B684021184600F0F3F8A0
:1030AC000BE07B681A683B681B681946104600F0F9
:1030BC00EAF802E000BF00E000BF7B68012283F861
:1030CC003D207B68002283F83C20002318461037F3
:1030DC00BD4680BD80B483B000AF786000BF0C37B4
:1030EC00BD4680BC704780B483B000AF786000BF31
:1030FC000C37BD4680BC704780B483B000AF78609D
:10310C0000BF0C37BD4680BC704780B483B000AFA5
:10311C00786000BF0C37BD4680BC704780B485B06A
:10312C0000AF786039607B681B68FB607B68254A60
:10313C00934207D07B68B3F1804F03D07B68224A5F
:10314C00934208D1FB6823F07003FB603B685B681B
:10315C00FA681343FB607B681A4A934207D07B687A
:10316C00B3F1804F03D07B68174A934208D1FB68B8
:10317C0023F44073FB603B68DB68FA681343FB6025
:10318C00FB6823F080023B685B691343FB607B6840
:10319C00FA681A603B689A687B68DA623B681A685E
:1031AC007B689A627B68074A934203D13B681A6931
:1031BC007B681A637B6801225A6100BF1437BD46D5
:1031CC0080BC7047002C01400004004080B487B0E4
:1031DC0000AFF860B9607A60FB681B6A7B61FB68C2
:1031EC001B6A23F00102FB681A62FB689B693B6156
:1031FC003B6923F0F0033B617B681B013A69134385
:10320C003B617B6923F00A037B617A69BB681343DA
:10321C007B61FB683A699A61FB687A691A6200BF44
:10322C001C37BD4680BC704780B487B000AFF860D7
:10323C00B9607A60FB681B6A23F01002FB681A62A3
:10324C00FB689B697B61FB681B6A3B617B6923F4B0
:10325C0070437B617B681B037A6913437B613B6919
:10326C0023F0A0033B61BB681B013A6913433B612C
:10327C00FB687A699A61FB683A691A6200BF1C376D
:10328C00BD4680BC704780B485B000AF78603960B3
:10329C007B689B68FB60FB6823F07003FB603A68FB
:1032AC00FB68134343F00703FB607B68FA689A6082
:1032BC0000BF1437BD4680BC704780B487B000AFE8
:1032CC00F860B9607A603B60FB689B687B617B69E6
:1032DC0023F47F437B613B681A027B681A43BB680B
:1032EC0013437A6913437B61FB687A699A6000BF68
:1032FC001C37BD4680BC704780B485B000AF786089
:10330C0039607B6893F83C30012B01D1022341E0FA
:10331C007B68012283F83C207B68022283F83D20E5
:10332C007B681B685B68FB607B681B689B68BB6089
:10333C00FB6823F07003FB603B681B68FA6813435F
:10334C00FB607B681B68FA685A607B681B68144AD0
:10335C00934209D07B681B68B3F1804F04D07B6823
:10336C001B68104A93420CD1BB6823F08003BB60EE
:10337C003B685B68BA681343BB607B681B68BA68C0
:10338C009A607B68012283F83D207B68002283F8D9
:10339C003C20002318461437BD4680BC704700BF44
:1033AC00002C01400004004080B483B000AF786072
:1033BC0000BF0C37BD4680BC704780B483B000AFF3
:1033CC00786000BF0C37BD4680BC704770B50026D6
:1033DC000C4D0D4C641BA410A64209D100F022F830
:1033EC0000260A4D0A4C641BA410A64205D170BDE0
:1033FC0055F8043B98470136EEE755F8043B9847DF
:10340C000136F2E7683400086834000868340008B4
:10341C006C34000803460244934200D1704703F811
:10342C00011BF9E7F8B500BFF8BC08BC9E46704715
:0C343C00F8B500BFF8BC08BC9E46704705
:1034480002030405060708090A0B0C0D0E0F1010DD
:10345800000000000000000001020304060708093C
:043468003101000826
:04346C000D01000846
:103470000100000001000000010000000100000048
:103480000100000001000000010000000100000038
:103490000100000001000000010000000100000028
:1034A0002C010000FF000000AFC00200FF00000080
:1034B000FF000000B00400002C01000084030000A5
:0C34C0000024F4001000000001000000D7
:0400000508001D4989
:00000001FF
