:020000040800F2
:1000000000280020F9150008891500088F15000840
:10001000951500089B150008A115000800000000B8
:10002000000000000000000000000000A71500080C
:10003000B315000800000000BF150008CB1500082C
:100040004116000841160008411600084116000834
:100050004116000841160008411600084116000824
:100060004116000841160008411600084116000814
:100070004116000841160008411600084116000804
:1000800041160008411600084116000841160008F4
:1000900041160008411600084116000841160008E4
:1000A00041160008411600084116000841160008D4
:1000B000D91500084116000800000000411600088C
:1000C0004116000800000000000000004116000872
:1000D0000000000041160008411600080000000062
:1000E00041160008411600084116000800000000F3
:1000F0000000000000000000000000000000000000
:0C01000000000000000000005FF808F1A3
:10010C0010B5054C237833B9044B13B10448AFF345
:10011C0000800123237010BD70000020000000003F
:10012C00882C000808B5034B1BB103490348AFF3F7
:10013C00008008BD0000000074000020882C00081E
:10014C0080B500AF174B5B68164A9360154B1B6864
:10015C00144A53604FF40051134801F057FD034605
:10016C001A46104B1A600F4B9A680E4B5B689A42FA
:10017C0016D10C4B5A680B4B1B689A4210D1094B89
:10018C009A68084BDB689A420AD0064B9B68054A72
:10019C00D360044B9B68002B02D1024B01221A61E5
:1001AC0000BF80BD000000200010014080B500AFF2
:1001BC00174B5B68164A9360154B1B68144A5360C7
:1001CC004FF48041134801F021FD03461A46104BB1
:1001DC001A600F4B9A680E4B5B689A4216D10C4B07
:1001EC005A680B4B1B689A4210D1094B9A68084B02
:1001FC00DB689A420AD0064B9B68054AD360044BD5
:10020C009B68002B02D1024B01221A6100BF80BDFA
:10021C00140000200010014080B500AF174B5B6844
:10022C00164A9360154B1B68144A53604FF40041F7
:10023C00134801F0EBFC03461A46104B1A600F4BA7
:10024C009A680E4B5B689A4216D10C4B5A680B4B52
:10025C001B689A4210D1094B9A68084BDB689A428A
:10026C000AD0064B9B68054AD360044B9B68002B55
:10027C0002D1024B01221A6100BF80BD2800002070
:10028C000010014080B400AF064B1B69012B04D158
:10029C00044B00221A61012300E000231846BD46DE
:1002AC0080BC70470000002080B400AF064B1B6977
:1002BC00012B04D1044B00221A61012300E000231E
:1002CC001846BD4680BC70471400002080B400AFB7
:1002DC00064B1B69012B04D1044B00221A6101232C
:1002EC0000E000231846BD4680BC70472800002063
:1002FC0080B500AFFFF724FFFFF758FFFFF78CFF27
:10030C0000BF80BD80B500AF404B1B68052B7AD871
:10031C0001A252F823F000BF4B0300087D03000834
:10032C00AF030008E1030008130400083D030008B4
:10033C00364B00221A60364B18221A6064E00020FB
:10034C0000F06AF8334B1B68184600F0DFF8304BAE
:10035C001B68002B06DC2D4B01221A602C4B18223B
:10036C001A6051E02A4B1B68013B294A13604BE091
:10037C00012000F051F8274B5B68184600F0C6F8D6
:10038C00234B1B68002B06DC204B02221A60204BEF
:10039C0018221A6038E01E4B1B68013B1C4A136084
:1003AC0032E0022000F038F81A4B9B68184600F037
:1003BC00ADF8174B1B68002B06DC144B03221A609C
:1003CC00134B18221A601FE0114B1B68013B104A9B
:1003DC00136019E0032000F01FF80E4BDB68184681
:1003EC0000F094F80A4B1B68002B06DC074B00222C
:1003FC001A60074B18221A6006E0054B1B68013B7C
:10040C00034A136000E000BF00BF80BD5400002011
:10041C00580000209400002080B582B000AF7860B6
:10042C007B68032B6AD801A252F823F04904000818
:10043C0079040008A9040008D904000800228021CE
:10044C00314801F0FAFB01224FF480712E4801F083
:10045C00F4FB01224FF400712B4801F0EEFB01225A
:10046C004FF48061284801F0E8FB48E0012280212C
:10047C00254801F0E2FB00224FF48071224801F084
:10048C00DCFB01224FF400711F4801F0D6FB012266
:10049C004FF480611C4801F0D0FB30E00122802138
:1004AC00194801F0CAFB01224FF48071164801F083
:1004BC00C4FB00224FF40071134801F0BEFB012273
:1004CC004FF48061104801F0B8FB18E00122802144
:1004DC000D4801F0B2FB01224FF480710A4801F083
:1004EC00ACFB01224FF40071074801F0A6FB00227F
:1004FC004FF48061044801F0A0FB00E000BF00BF96
:10050C000837BD4680BD00BF0008014080B582B0F1
:10051C0000AF78607B68092B00F2808101A252F851
:10052C0023F000BF59050008A1050008E9050008E3
:10053C003106000879060008C10600080907000802
:10054C005107000899070008E10700080022012163
:10055C00B54801F072FB00220221B34801F06DFB9B
:10056C0000220421B04801F068FB00220821AE48AB
:10057C0001F063FB00221021AB4801F05EFB00226E
:10058C002021A94801F059FB01224021A64801F085
:10059C0054FB44E101220121A34801F04EFB00224F
:1005AC000221A14801F049FB002204219E4801F0E0
:1005BC0044FB012208219C4801F03FFB0122102141
:1005CC00994801F03AFB01222021974801F035FBB4
:1005DC0001224021944801F030FB20E1002201214E
:1005EC00914801F02AFB002202218F4801F025FBE3
:1005FC00012204218C4801F020FB002208218A48AA
:10060C0001F01BFB00221021874801F016FB012290
:10061C002021854801F011FB00224021824801F085
:10062C000CFBFCE0002201217F4801F006FB0022BC
:10063C0002217D4801F001FB002204217A4801F0DF
:10064C00FCFA00220821784801F0F7FA0122102167
:10065C00754801F0F2FA01222021734801F0EDFAFD
:10066C0000224021704801F0E8FAD8E00122012173
:10067C006D4801F0E2FA002202216B4801F0DDFA2C
:10068C0000220421684801F0D8FA012208216648AA
:10069C0001F0D3FA01221021634801F0CEFA0022B6
:1006AC002021614801F0C9FA002240215E4801F086
:1006BC00C4FAB4E0002201215B4801F0BEFA012229
:1006CC000221594801F0B9FA00220421564801F0E0
:1006DC00B4FA00220821544801F0AFFA012210218B
:1006EC00514801F0AAFA002220214F4801F0A5FA46
:1006FC00002240214C4801F0A0FA90E00022012198
:10070C00494801F09AFA01220221474801F095FA72
:10071C0000220421444801F090FA002208214248AA
:10072C0001F08BFA002210213F4801F086FA0022DA
:10073C0020213D4801F081FA002240213A4801F085
:10074C007CFA6CE000220121374801F076FA002295
:10075C000221354801F071FA00220421324801F0DF
:10076C006CFA01220821304801F067FA01221021AD
:10077C002D4801F062FA012220212B4801F05DFA8C
:10078C0001224021284801F058FA48E000220121BA
:10079C00254801F052FA00220221234801F04DFABB
:1007AC0000220421204801F048FA002208211E48AA
:1007BC0001F043FA002210211B4801F03EFA0022FE
:1007CC002021194801F039FA00224021164801F085
:1007DC0034FA24E000220121134801F02EFA002201
:1007EC000221114801F029FA002204210E4801F0DF
:1007FC0024FA002208210C4801F01FFA01221021D2
:10080C00094801F01AFA00222021074801F015FAD4
:10081C0000224021044801F010FA00E000BF00BFA4
:10082C000837BD4680BD00BF000C014080B483B0CA
:10083C0000AF78607B68032B49D07B68032B66DCA8
:10084C007B68012B03D07B68022B20D05FE0334BFD
:10085C001B68334A82FB03129210DB17D31A314AFE
:10086C0013602E4B19682E4B83FB01239A10CB1768
:10087C00D21A13469B0013445B00CA1A294B5A60C8
:10088C00284B00229A60274B0222DA6040E0234B6F
:10089C001B68234A82FB03129210DB17D31A214ADE
:1008AC0013601E4B19681E4B83FB01239A10CB1748
:1008BC00D21A13469B0013445B00CA1A194B5A6098
:1008CC00184B00229A60174B0322DA6020E0134B7E
:1008DC001B68134A82FB03129210DB17D31A114ABE
:1008EC0013600E4B19680E4B83FB01239A10CB1728
:1008FC00D21A13469B0013445B00CA1A094B5A6068
:10090C00084B00229A60074B0422DA6000E000BF1B
:10091C0000BF0C37BD4680BC704700BF9000002064
:10092C00676666669400002080B500AF01227E21C8
:10093C00024801F082F900BF80BD00BF00080140F1
:10094C0080B500AF994B1B68013B042B00F29581DD
:10095C0001A252F823F000BF930900084F0A0008C7
:10096C00FF0A0008D90B000879090008FFF7DCFF23
:10097C008E4B01221A608E4B1B688E4A13608E4B75
:10098C0063221A6082E1002242218C4801F055F961
:10099C00884B1A688A4B1B6813448A4A82FB0312E1
:1009AC009210DB17D31A884A1360824B1A68844B57
:1009BC001B68D118834B83FB01239A10CB17D21AD7
:1009CC0013469B0013445B00CA1A7F4B5A60794B49
:1009DC001B687C4A82FB03129210DB17D31A7A4AEB
:1009EC009360744B1968774B83FB01239A10CB17D8
:1009FC00D21A13469B0013445B00CA1A724BDA607E
:100A0C006D4B1B68002B16DC6B4B63221A60694B19
:100A1C001B68013B674A1360664B1B68002B00F395
:100A2C002E81624B02221A60654B1B68614A13606F
:100A3C00FFF77AFF23E1604B1B68013B5E4A1360B2
:100A4C001DE1002222215D4801F0F7F8594B1B688B
:100A5C005C4A82FB03129210DB17D31A5A4A1360BA
:100A6C00544B1968574B83FB01239A10CB17D21A9E
:100A7C0013469B0013445B00CA1A534B5A604D4BF0
:100A8C001B68504A82FB03129210DB17D31A4E4A92
:100A9C009360484B19684B4B83FB01239A10CB177F
:100AAC00D21A13469B0013445B00CA1A464BDA60F9
:100ABC00414B1B68002B16DC3F4B63221A603D4BED
:100ACC001B68013B3B4A13603A4B1B68002B00F33D
:100ADC00D880364B03221A60354B1B68354A13609D
:100AEC00FFF722FFCDE0344B1B68013B324A136009
:100AFC00C7E000221821314801F09FF82D4B1B68EC
:100B0C00304A82FB03129210DB17D31A2E4A136061
:100B1C00284B19682B4B83FB01239A10CB17D21A45
:100B2C0013469B0013445B00CA1A274B5A60214B97
:100B3C001A68234B1B681344224A82FB031292103F
:100B4C00DB17D31A204A93601A4B1A681C4B1B688C
:100B5C00D1181C4B83FB01239A10CB17D21A1346C6
:100B6C009B0013445B00CA1A174BDA60124B1B68CC
:100B7C00002B15DC104B63221A600E4B1B68013BDB
:100B8C000C4A13600B4B1B68002B7CDC074B0422BC
:100B9C001A600B4B1B68074A1360FFF7C5FE72E027
:100BAC00054B1B68013B044A13606CE03C000020C1
:100BBC00480000208C00002060000020000801404C
:100BCC0044000020676666669400002000222821FD
:100BDC002F4801F032F82F4B1B682F4A82FB03126F
:100BEC009210DB17D31A2D4A13602A4B19682A4B23
:100BFC0083FB01239A10CB17D21A13469B00134484
:100C0C005B00CA1A254B5A60224B1B68224A82FB96
:100C1C0003129210DB17D31A204A93601D4B1968EC
:100C2C001D4B83FB01239A10CB17D21A13469B0042
:100C3C0013445B00CA1A194BDA60194B1B68002B62
:100C4C0015DC174B63221A60124B1B68013B114ACF
:100C5C001360104B1B68002B17DC124B01221A601F
:100C6C00114B1B680B4A1360FFF75EFE0DE00C4B3B
:100C7C001B68013B0A4A136007E000BF06E000BF97
:100C8C0004E000BF02E000BF00E000BF00BF80BD79
:100C9C00000801408C000020676666669400002006
:100CAC00600000203C0000204800002080B582B08D
:100CBC0000AF7860324B1B68013B042B5AD801A261
:100CCC0052F823F0150D0008390D00085D0D0008D1
:100CDC00810D0008E50C0008FFF726FE7B68012B50
:100CEC0002D1274A7B6813607B68032B02D1244B0B
:100CFC0003221A607B68022B02D1214B02221A605C
:100D0C00204B18221A6036E01E4B1B68002B07DCA8
:100D1C001C4B18221A6012211B4800F0A6FF2AE077
:100D2C00184B1B68013B174A136024E0154B1B68DA
:100D3C00002B07DC134B18221A602421124800F0F8
:100D4C0094FF18E00F4B1B68013B0E4A136012E036
:100D5C000C4B1B68002B07DC0A4B18221A6048212D
:100D6C00094800F082FF06E0064B1B68013B054A70
:100D7C00136000E000BF00BF0837BD4680BD00BF58
:100D8C00500000205C0000200008014080B500AF3E
:100D9C007B4B1B68052B00F2E78001A252F823F075
:100DAC00DB0D0008330E00089F0E00080B0F000827
:100DBC00750F0008C50D0008714B00221A60704BAE
:100DCC001B681846FFF732FDFFF79CFAD5E06D4B18
:100DDC001A686D4B1B681A446C4B1B689A4208D0FE
:100DEC006A4B05221A60674B03221A60664B02227B
:100DFC001A60FFF7A5FD624B1B681846FFF716FD3E
:100E0C00FFF780FAFFF73EFA0346002B00F0AE80A6
:100E1C005B4B01221A605D4B1B685D4A13605D4B96
:100E2C0005221A60A2E00120FFF740FF544B1B681B
:100E3C001846FFF7FBFCFFF765FAFFF723FA0346AA
:100E4C00002B0AD04E4B02221A604F4B1B68504AA3
:100E5C001360504B05221A608AE0FFF725FA03460F
:100E6C00002B0CD04A4B1B680133494A1360484B8A
:100E7C001B68632B7CDD464B01221A6078E0FFF780
:100E8C0025FA0346002B73D0414B1B683F4A136075
:100E9C006EE00220FFF70AFF394B1B681846FFF77C
:100EAC00C5FCFFF72FFAFFF7EDF90346002B0AD02C
:100EBC00334B03221A60334B1B68354A1360354B96
:100ECC0005221A6056E0FFF7EFF90346002B0CD011
:100EDC002F4B1B6801332E4A13602D4B1B68632B61
:100EEC0048DD2B4B01221A6044E0FFF7EFF9034673
:100EFC00002B3FD0264B1B68234A13603AE003209B
:100F0C00FFF7D4FE1E4B1B681846FFF78FFCFFF74C
:100F1C00F9F9FFF7B7F90346002B09D0184B00225B
:100F2C001A601D4B05221A601C4B05221A6023E027
:100F3C00FFF7BAF90346002B0CD0154B1B68013395
:100F4C00134A1360124B1B68632B15DD104B0122E7
:100F5C001A6011E0FFF7BAF90346002B0CD00C4BCA
:100F6C001B68084A136007E000BF06E000BF04E0FE
:100F7C0000BF02E000BF00E000BF00BF80BD00BFAB
:100F8C004C000020480000204400002040000020BD
:100F9C0090000020500000203C0000205400002055
:100FAC0080B500AF00F048FB00F016F800F09CF89C
:100FBC0000F04EF8064801F09DFA00F018F90122F5
:100FCC000021044800F098F900F0F6F9FCE700BFA6
:100FDC00A8000020990D000880B590B000AF07F173
:100FEC00180328220021184601F040FE3B1D002268
:100FFC001A605A609A60DA601A610223BB6101239D
:10100C00BB621023FB6200237B6307F118031846B5
:10101C0000F044FE0346002B01D000F0E3F80F2350
:10102C007B600023BB600023FB6000233B6100233B
:10103C007B613B1D0021184601F0B0F80346002BE4
:10104C0001D000F0CFF800BF4037BD4680BD000096
:10105C0080B586B000AF07F1080300221A605A6011
:10106C009A60DA603B4600221A605A601D4B4FF0C2
:10107C0080421A601B4B41F63F725A60194B00229A
:10108C009A60184B0922DA60164B00221A61154B34
:10109C0000229A61134801F0DDF90346002B01D0C0
:1010AC0000F0A0F84FF48053BB6007F10803194619
:1010BC000C4801F073FB0346002B01D000F092F8B2
:1010CC0000233B6000237B603B461946054801F03A
:1010DC003FFD0346002B01D000F084F800BF183709
:1010EC00BD4680BDA800002080B588B000AF07F1D8
:1010FC00100300221A605A609A60DA602F4B9B69C9
:10110C002E4A43F0100393612C4B9B6903F01003A0
:10111C00FB60FB68294B9B69284A43F004039361ED
:10112C00264B9B6903F00403BB60BB68234B9B6994
:10113C00224A43F008039361204B9B6903F0080398
:10114C007B607B68002240F2FE711D4800F075FD4B
:10115C00002248F27F011B4800F06FFD4FF4604302
:10116C003B6100237B610123BB6107F1100319462E
:10117C00154800F0D1FB40F2FE733B6101237B610B
:10118C000023BB610223FB6107F1100319460C48D5
:10119C0000F0C2FB48F27F033B6101237B6100231B
:1011AC00BB610223FB6107F110031946054800F0EF
:1011BC00B3FB00BF2037BD4680BD00BF001002400E
:1011CC0000080140000C01400010014080B582B0C5
:1011DC0000AF786000F020F8FFF78AF800BF0837FE
:1011EC00BD4680BD80B400AF72B600BFFEE780B5CF
:1011FC0082B000AF0023FB7106E0FB79184600F0CB
:10120C0027F9FB790133FB71FB79272BF5D900BF4B
:10121C0000BF0837BD4680BD80B483B000AF00234B
:10122C00FB715DE0FA79334913469B0013449B0034
:10123C000B441B68002B50D0FA792E4913469B00A7
:10124C0013449B000B4404331B68002B32D1FA79F6
:10125C00284913469B0013449B000B440C331B780A
:10126C00FA790133D8B2234913469B0013449B00EF
:10127C000B440C3302461A70FA791E4913469B0034
:10128C0013449B000B4408331B68002B25D0F979C1
:10129C00FA7918480B469B000B449B000344083317
:1012AC001968144813469B0013449B0003440433F1
:1012BC00196012E0FA790F4913469B0013449B0006
:1012CC000B4404331B68FA79591E0A4813469B00D9
:1012DC0013449B00034404331960FB790133FB7105
:1012EC00FB79272B9ED900BF00BF0C37BD4680BCB5
:1012FC00704700BFF000002080B487B000AFF860EA
:10130C00B9607A602A4B1B68272B4BDC0023FB75DA
:10131C0045E0FA7D274913469B0013449B000B4480
:10132C001B68002B03D0FB7D0133FB7537E0FA7D86
:10133C00204913469B0013449B000B44FA681A6027
:10134C00FA7D1C4913469B0013449B000B44043349
:10135C00BA681A60FA7D174913469B0013449B0028
:10136C000B4408337A681A60FA7D124913469B00C5
:10137C0013449B000B440C3300221A70FA7DF97D48
:10138C000C4813469B0013449B0003441033196014
:10139C00074B1B680133064A136000BF02E0FB7D5C
:1013AC00272BB6D900BF1C37BD4680BC704700BF89
:1013BC00A4000020F000002080B582B000AF002314
:1013CC00FB713AE0FA79214913469B0013449B00C8
:1013DC000B440C331B78002B2CD0FA791B49134689
:1013EC009B0013449B000B441B689847FA791749E0
:1013FC0013469B0013449B000B440C331B78FA7967
:10140C00013BD8B2114913469B0013449B000B447B
:10141C000C3302461A70FA790C4913469B0013449C
:10142C009B000B4408331B68002B03D1FB79184637
:10143C0000F00EF8FB790133FB71FB79272BC1D936
:10144C0000BF00BF0837BD4680BD00BFF0000020C4
:10145C0080B483B000AF78607B68272B31D81B49F0
:10146C007A6813469B0013449B000B441B68002BAB
:10147C0027D016497A6813469B0013449B000B44F3
:10148C0000221A6011497A6813469B0013449B0092
:10149C000B44043300221A600C497A6813469B00F3
:1014AC0013449B000B44083300221A6007497A68E6
:1014BC0013469B0013449B000B440C3300221A7000
:1014CC0000E000BF0C37BD4680BC7047F000002028
:1014DC0080B485B000AF154B9B69144A43F00103EF
:1014EC009361124B9B6903F00103BB60BB680F4B0C
:1014FC00DB690E4A43F08053D3610C4BDB6903F07C
:10150C0080537B607B680A4B5B68FB60FB6823F055
:10151C00E063FB60FB6843F08063FB60044AFB689C
:10152C00536000BF1437BD4680BC704700100240AA
:10153C000000014080B584B000AF78607B681B6808
:10154C00B3F1804F13D10C4BDB690B4A43F0010311
:10155C00D361094BDB6903F00103FB60FB680022DC
:10156C0000211C2000F0A1F91C2000F0BAF900BFEA
:10157C001037BD4680BD00BF0010024080B400AFE4
:10158C00FEE780B400AFFEE780B400AFFEE780B4A6
:10159C0000AFFEE780B400AFFEE780B400AF00BF41
:1015AC00BD4680BC704780B400AF00BFBD4680BC58
:1015BC00704780B400AF00BFBD4680BC704780B59B
:1015CC0000AF00F07FF800BF80BD000080B500AF19
:1015DC00024800F0DBFF00BF80BD00BFA800002068
:1015EC0080B400AF00BFBD4680BC7047FFF7F8FF6A
:1015FC000B480C490C4A002302E0D458C450043365
:10160C00C4188C42F9D3094A094C002301E0136039
:10161C000432A242FBD301F005FBFFF7C1FC70477B
:10162C000000002070000020CC2C0008700000206E
:10163C0014040020FEE7000080B500AF084B1B68C7
:10164C00074A43F010031360032000F023F90F2026
:10165C0000F008F8FFF73CFF0023184680BD00BFE0
:10166C000020024080B582B000AF7860124B1A683F
:10167C00124B1B7819464FF47A73B3FBF1F3B2FBA0
:10168C00F3F3184600F03BF90346002B01D001237D
:10169C000EE07B680F2B0AD8002279684FF0FF30E0
:1016AC0000F003F9064A7B681360002300E0012375
:1016BC0018460837BD4680BD640000206C00002031
:1016CC006800002080B400AF054B1B781A46054B10
:1016DC001B681344034A136000BFBD4680BC7047AF
:1016EC006C0000201004002080B400AF024B1B687B
:1016FC001846BD4680BC70471004002080B485B0ED
:10170C0000AF78607B6803F00703FB600C4BDB6871
:10171C00BB60BA684FF6FF031340BB60FB681A024C
:10172C00BB68134343F0BF6343F40033BB60044A0C
:10173C00BB68D36000BF1437BD4680BC704700BF88
:10174C0000ED00E080B400AF044BDB681B0A03F033
:10175C0007031846BD4680BC704700BF00ED00E093
:10176C0080B483B000AF0346FB7197F90730002BB0
:10177C000BDBFB7903F01F02064997F907305B0975
:10178C00012000FA02F241F8232000BF0C37BD46BD
:10179C0080BC704700E100E080B483B000AF03462A
:1017AC003960FB7197F90730002B0ADB3B68DAB222
:1017BC000C4997F907301201D2B20B4483F800237D
:1017CC000AE03B68DAB20849FB7903F00F03043BEB
:1017DC001201D2B20B441A7600BF0C37BD4680BC46
:1017EC00704700BF00E100E000ED00E080B489B07C
:1017FC0000AFF860B9607A60FB6803F00703FB6127
:10180C00FB69C3F10703042B28BF0423BB61FB69ED
:10181C000433062B02D9FB69033B00E000237B61F8
:10182C004FF0FF32BB6902FA03F3DA43BB681A408C
:10183C007B699A404FF0FF317B6901FA03F3D9437E
:10184C007B680B40134318462437BD4680BC704759
:10185C0080B582B000AF78607B68013BB3F1807FCC
:10186C0001D301230FE00A4A7B68013B53600F212F
:10187C004FF0FF30FFF790FF054B00229A60044BAE
:10188C0007221A60002318460837BD4680BD00BFEA
:10189C0010E000E080B582B000AF78607868FFF7A8
:1018AC002DFF00BF0837BD4680BD80B586B000AFA8
:1018BC000346B9607A60FB7300237B61FFF742FF3C
:1018CC0078617A68B9687869FFF790FF024697F9F2
:1018DC000F3011461846FFF75FFF00BF1837BD46A3
:1018EC0080BD80B582B000AF0346FB7197F907301D
:1018FC001846FFF735FF00BF0837BD4680BD80B5E1
:10190C0082B000AF78607868FFF7A2FF03461846F4
:10191C000837BD4680BD000080B48BB000AF786046
:10192C00396000237B6200233B6248E101227B6A21
:10193C0002FA03F3FB613B681B68FA691340BB6155
:10194C00BA69FB699A4240F037813B685B68A34AED
:10195C0093425ED0A14A934275D8A14A934258D083
:10196C009F4A93426FD89F4A934252D09D4A9342CA
:10197C0069D89D4A93424CD09B4A934263D89B4A68
:10198C00934246D0994A93425DD8122B2AD8122BF7
:10199C0059D801A252F823F01F1A0008F9190008AF
:1019AC000B1A00084D1A0008531A0008531A0008A5
:1019BC00531A0008531A0008531A0008531A000847
:1019CC00531A0008531A0008531A0008531A000837
:1019DC00531A0008531A0008531A0008011A000879
:1019EC00151A0008824A934213D02CE03B68DB683E
:1019FC003B6229E03B68DB6804333B6224E03B68D4
:101A0C00DB6808333B621FE03B68DB680C333B62EE
:101A1C001AE03B689B68002B02D104233B6213E065
:101A2C003B689B68012B05D108233B627B68FA69F4
:101A3C001A6109E008233B627B68FA695A6103E08A
:101A4C0000233B6200E000BFBB69FF2B01D87B6821
:101A5C0001E07B6804337B61BB69FF2B02D87B6A96
:101A6C009B0002E07B6A083B9B003B617B691A6828
:101A7C000F213B6901FA03F3DB431A40396A3B69D6
:101A8C0001FA03F31A437B691A603B685B6803F045
:101A9C008053002B00F09080564B9B69554A43F0C5
:101AAC0001039361534B9B6903F00103BB60BB685B
:101ABC00514A7B6A9B08023352F82330FB607B6AE5
:101ACC0003F003039B000F2202FA03F3DB43FA68D3
:101ADC001340FB607B68494A93420DD07B68484AAF
:101AEC00934207D07B68474A934201D1022304E01A
:101AFC00032302E0012300E000237A6A02F00302D0
:101B0C0092009340FA681343FB603B497B6A9B0845
:101B1C000233FA6841F823203B685B6803F48013B6
:101B2C00002B06D0384B9A683749BB6913438B603E
:101B3C0006E0354B9A68BB69DB43334913408B6035
:101B4C003B685B6803F40013002B06D02E4BDA685D
:101B5C002D49BB691343CB6006E02B4BDA68BB699C
:101B6C00DB4329491340CB603B685B6803F40033CB
:101B7C00002B06D0244B5A682349BB6913434B6096
:101B8C0006E0214B5A68BB69DB431F4913404B608D
:101B9C003B685B6803F48033002B06D01A4B1A6841
:101BAC001949BB6913430B6006E0174B1A68BB69F4
:101BBC00DB43154913400B607B6A01337B623B6846
:101BCC001A687B6A22FA03F3002B7FF4AFAE00BFD6
:101BDC0000BF2C37BD4680BC704700BF00003210E0
:101BEC000000311000002210000021100000121023
:101BFC0000001110001002400000014000080140DC
:101C0C00000C0140001001400004014080B485B07C
:101C1C0000AF78600B467B807B689A687B881340AA
:101C2C00002B02D00123FB7301E00023FB73FB7B31
:101C3C0018461437BD4680BC704780B483B000AFE3
:101C4C0078600B467B8013467B707B78002B03D02F
:101C5C007A887B681A6103E07B881A047B681A61B6
:101C6C0000BF0C37BD4680BC704780B485B000AF58
:101C7C0078600B467B807B68DB68FB607A88FB684E
:101C8C0013401A04FB68D9437B880B401A437B68CA
:101C9C001A6100BF1437BD4680BC704780B586B052
:101CAC0000AF78607B68002B01D101236CE27B686C
:101CBC001B6803F00103002B00F08780924B5B68DC
:101CCC0003F00C03042B0CD08F4B5B6803F00C035C
:101CDC00082B12D18C4B5B6803F48033B3F5803F37
:101CEC000BD1894B1B6803F40033002B6CD07B6841
:101CFC005B68002B68D1012346E27B685B68B3F517
:101D0C00803F06D1804B1B687F4A43F480331360BD
:101D1C002EE07B685B68002B0CD17B4B1B687A4AEE
:101D2C0023F480331360784B1B68774A23F48023A9
:101D3C0013601DE07B685B68B3F5A02F0CD1724B70
:101D4C001B68714A43F4802313606F4B1B686E4A07
:101D5C0043F4803313600BE06B4B1B686A4A23F42B
:101D6C0080331360684B1B68674A23F4802313602D
:101D7C007B685B68002B13D0FFF7B6FC386108E07A
:101D8C00FFF7B2FC02463B69D31A642B01D903233B
:101D9C00FAE15D4B1B6803F40033002BF0D014E028
:101DAC00FFF7A2FC386108E0FFF79EFC02463B6996
:101DBC00D31A642B01D90323E6E1534B1B6803F4BC
:101DCC000033002BF0D100E000BF7B681B6803F0F0
:101DDC000203002B63D04C4B5B6803F00C03002B0D
:101DEC000BD0494B5B6803F00C03082B1CD1464B02
:101DFC005B6803F48033002B16D1434B1B6803F054
:101E0C000203002B05D07B681B69012B01D0012339
:101E1C00BAE13D4B1B6823F0F8027B685B69DB0081
:101E2C00394913430B603AE07B681B69002B20D0C7
:101E3C00364B01221A60FFF757FC386108E0FFF7B8
:101E4C0053FC02463B69D31A022B01D903239BE1B5
:101E5C002D4B1B6803F00203002BF0D02A4B1B68A0
:101E6C0023F0F8027B685B69DB00274913430B60A6
:101E7C0015E0264B00221A60FFF736FC386108E0AB
:101E8C00FFF732FC02463B69D31A022B01D903231C
:101E9C007AE11D4B1B6803F00203002BF0D17B6829
:101EAC001B6803F00803002B3AD07B689B69002B5E
:101EBC0019D0174B01221A60FFF716FC386108E0A5
:101ECC00FFF712FC02463B69D31A022B01D90323FC
:101EDC005AE10D4B5B6A03F00203002BF0D001209A
:101EEC0000F09AFA1CE00A4B00221A60FFF7FCFB88
:101EFC0038610FE0FFF7F8FB02463B69D31A022B5F
:101F0C0008D9032340E100BF001002400000424208
:101F1C00800442429E4B5B6A03F00203002BE9D122
:101F2C007B681B6803F00403002B00F0A6800023E1
:101F3C00FB75974BDB6903F08053002B0DD1944B51
:101F4C00DB69934A43F08053D361914BDB6903F017
:101F5C008053BB60BB680123FB758E4B1B6803F47D
:101F6C008073002B18D18B4B1B688A4A43F4807307
:101F7C001360FFF7B9FB386108E0FFF7B5FB0246C9
:101F8C003B69D31A642B01D90323FDE0814B1B68F9
:101F9C0003F48073002BF0D07B68DB68012B06D137
:101FAC007B4B1B6A7A4A43F0010313622DE07B687A
:101FBC00DB68002B0CD1764B1B6A754A23F00103AE
:101FCC001362734B1B6A724A23F0040313621CE006
:101FDC007B68DB68052B0CD16D4B1B6A6C4A43F09C
:101FEC00040313626A4B1B6A694A43F001031362D0
:101FFC000BE0674B1B6A664A23F001031362644BC8
:10200C001B6A634A23F0040313627B68DB68002BB2
:10201C0015D0FFF769FB38610AE0FFF765FB024654
:10202C003B69D31A41F28832934201D90323ABE0C6
:10203C00574B1B6A03F00203002BEED014E0FFF7A2
:10204C0053FB38610AE0FFF74FFB02463B69D31A9A
:10205C0041F28832934201D9032395E04C4B1B6A21
:10206C0003F00203002BEED1FB7D012B05D1484B75
:10207C00DB69474A23F08053D3617B68DB69002B13
:10208C0000F08180424B5B6803F00C03082B61D09D
:10209C007B68DB69022B46D13F4B00221A60FFF7AD
:1020AC0023FB386108E0FFF71FFB02463B69D31A9C
:1020BC00022B01D9032367E0354B1B6803F0007337
:1020CC00002BF0D17B681B6AB3F5803F08D1304BF5
:1020DC005B6823F400327B689B682D4913434B608B
:1020EC002B4B5B6823F474127B68196A7B685B6A00
:1020FC000B43274913434B60274B01221A60FFF710
:10210C00F3FA386108E0FFF7EFFA02463B69D31A9D
:10211C00022B01D9032337E01D4B1B6803F000731E
:10212C00002BF0D02FE01C4B00221A60FFF7DCFADA
:10213C00386108E0FFF7D8FA02463B69D31A022B44
:10214C0001D9032320E0124B1B6803F00073002B12
:10215C00F0D118E07B68DB69012B01D1012313E07E
:10216C000B4B5B68FB60FB6803F480327B681B6A7B
:10217C009A4206D1FB6803F470127B685B6A9A4240
:10218C0001D0012300E0002318461837BD4680BD5E
:10219C0000100240007000406000424280B584B0E4
:1021AC0000AF786039607B68002B01D10123D0E04F
:1021BC006A4B1B6803F007033A689A4210D9674BC5
:1021CC001B6823F0070265493B6813430B60634BA4
:1021DC001B6803F007033A689A4201D00123B8E068
:1021EC007B681B6803F00203002B20D07B681B6804
:1021FC0003F00403002B05D0594B5B68584A43F499
:10220C00E06353607B681B6803F00803002B05D068
:10221C00534B5B68524A43F460535360504B5B68BA
:10222C0023F0F0027B689B684D4913434B607B683D
:10223C001B6803F00103002B40D07B685B68012B0B
:10224C0007D1474B1B6803F40033002B15D1012336
:10225C007FE07B685B68022B07D1414B1B6803F066
:10226C000073002B09D1012373E03D4B1B6803F075
:10227C000203002B01D101236BE0394B5B6823F087
:10228C0003027B685B68364913434B60FFF72CFAFB
:10229C00F8600AE0FFF728FA0246FB68D31A41F20D
:1022AC008832934201D9032353E02D4B5B6803F032
:1022BC000C027B685B689B009A42EBD1274B1B6836
:1022CC0003F007033A689A4210D2244B1B6823F0A0
:1022DC00070222493B6813430B60204B1B6803F039
:1022EC0007033A689A4201D0012332E07B681B68ED
:1022FC0003F00403002B08D0194B5B6823F4E06255
:10230C007B68DB68164913434B607B681B6803F0E2
:10231C000803002B09D0124B5B6823F460527B68D6
:10232C001B69DB000E4913434B6000F021F8024699
:10233C000B4B5B681B0903F00F030A49CB5C22FAB9
:10234C0003F3094A1360094B1B681846FFF78AF917
:10235C00002318461037BD4680BD00BF0020024048
:10236C0000100240A02C000864000020680000202F
:10237C0080B487B000AF0023FB600023BB60002358
:10238C007B6100237B6000233B611E4B5B68FB6021
:10239C00FB6803F00C03042B02D0082B03D027E0BE
:1023AC00194B3B6127E0FB689B0C03F00F03174AAA
:1023BC00D35C7B60FB6803F48033002B10D0114B93
:1023CC005B685B0C03F00103114AD35CBB607B6858
:1023DC000D4A02FB03F2BB68B2FBF3F37B6104E032
:1023EC007B680C4A02FB03F37B617B693B6102E077
:1023FC00054B3B6100BF3B6918461C37BD4680BC92
:10240C00704700BF0010024000127A00B02C000888
:10241C00C02C000800093D0080B485B000AF786086
:10242C000A4B1B680A4AA2FB03235B0A7A6802FB6D
:10243C0003F3FB6000BFFB685A1EFA60002BF9D156
:10244C0000BF00BF1437BD4680BC7047640000203D
:10245C00D34D621080B582B000AF78607B68002BE2
:10246C0001D1012341E07B6893F83D30DBB2002BB6
:10247C0006D17B68002283F83C207868FFF75AF875
:10248C007B68022283F83D207B681A687B680433E2
:10249C001946104600F06EFA7B68012283F846203C
:1024AC007B68012283F83E207B68012283F83F2061
:1024BC007B68012283F840207B68012283F841204D
:1024CC007B68012283F842207B68012283F8432039
:1024DC007B68012283F844207B68012283F8452025
:1024EC007B68012283F83D20002318460837BD463F
:1024FC0080BD000080B485B000AF78607B6893F835
:10250C003D30DBB2012B01D0012335E07B68022288
:10251C0083F83D207B681B68DA687B681B6842F097
:10252C000102DA607B681B68164A934209D07B680B
:10253C001B68B3F1804F04D07B681B68124A93422E
:10254C0011D17B681B689B6803F00703FB60FB6879
:10255C00062B10D07B681B681A687B681B6842F0DE
:10256C0001021A6007E07B681B681A687B681B68AD
:10257C0042F001021A60002318461437BD4680BC95
:10258C00704700BF002C01400004004080B582B0B1
:10259C0000AF78607B681B681B6903F00203022B99
:1025AC0022D17B681B68DB6803F00203022B1BD172
:1025BC007B681B686FF002021A617B6801221A7734
:1025CC007B681B689B6903F00303002B03D07868BE
:1025DC0000F0B4F905E0786800F0A7F9786800F02D
:1025EC00B6F97B6800221A777B681B681B6903F0BD
:1025FC000403042B22D17B681B68DB6803F0040303
:10260C00042B1BD17B681B686FF004021A617B687A
:10261C0002221A777B681B689B6903F44073002BBA
:10262C0003D0786800F08AF905E0786800F07DF94D
:10263C00786800F08CF97B6800221A777B681B683D
:10264C001B6903F00803082B22D17B681B68DB682D
:10265C0003F00803082B1BD17B681B686FF0080282
:10266C001A617B6804221A777B681B68DB6903F0AC
:10267C000303002B03D0786800F060F905E078685C
:10268C0000F053F9786800F062F97B6800221A7741
:10269C007B681B681B6903F01003102B22D17B682D
:1026AC001B68DB6803F01003102B1BD17B681B68C5
:1026BC006FF010021A617B6808221A777B681B681E
:1026CC00DB6903F44073002B03D0786800F036F913
:1026DC0005E0786800F029F9786800F038F97B6833
:1026EC0000221A777B681B681B6903F00103012B1E
:1026FC000ED17B681B68DB6803F00103012B07D14B
:10270C007B681B686FF001021A617868FEF75EFD4A
:10271C007B681B681B6903F08003802B0ED17B68E0
:10272C001B68DB6803F08003802B07D17B681B6878
:10273C006FF080021A61786800F06BFA7B681B6896
:10274C001B6903F04003402B0ED17B681B68DB68D0
:10275C0003F04003402B07D17B681B686FF04002ED
:10276C001A61786800F0FCF87B681B681B6903F041
:10277C002003202B0ED17B681B68DB6803F0200341
:10278C00202B07D17B681B686FF020021A617868D8
:10279C0000F036FA00BF0837BD4680BD80B584B066
:1027AC0000AF786039600023FB737B6893F83C3092
:1027BC00012B01D10223B4E07B68012283F83C2079
:1027CC007B68022283F83D207B681B689B68BB609A
:1027DC00BB6823F07703BB60BB6823F47F43BB600B
:1027EC007B681B68BA689A603B681B68B3F5005F2E
:1027FC003ED0B3F5005F00F28780B3F5805F00F048
:10280C008680B3F5805F7FD8702B1AD0702B7BD865
:10281C00602B50D0602B77D8502B3CD0502B73D8DA
:10282C00402B58D0402B6FD8302B64D0302B6BD82A
:10283C00202B60D0202B67D8002B5CD0102B5AD0CB
:10284C0062E07B6818683B6899683B685A683B682B
:10285C00DB6800F05EF97B681B689B68BB60BB683B
:10286C0043F07703BB607B681B68BA689A604FE0E3
:10287C007B6818683B6899683B685A683B68DB68FA
:10288C0000F047F97B681B689A687B681B6842F408
:10289C0080429A603CE07B6818683B6859683B68EA
:1028AC00DB681A4600F0BEF87B681B68502118469E
:1028BC0000F015F92CE07B6818683B6859683B6898
:1028CC00DB681A4600F0DCF87B681B686021184650
:1028DC0000F005F91CE07B6818683B6859683B6898
:1028EC00DB681A4600F09EF87B681B68402118468E
:1028FC0000F0F5F80CE07B681A683B681B68194619
:10290C00104600F0ECF803E00123FB7300E000BF7D
:10291C007B68012283F83D207B68002283F83C20F1
:10292C00FB7B18461037BD4680BD80B483B000AF2A
:10293C00786000BF0C37BD4680BC704780B483B054
:10294C0000AF786000BF0C37BD4680BC704780B4C8
:10295C0083B000AF786000BF0C37BD4680BC7047B9
:10296C0080B483B000AF786000BF0C37BD4680BC2C
:10297C007047000080B485B000AF786039607B6828
:10298C001B68FB607B68254A934207D07B68B3F1D8
:10299C00804F03D07B68224A934208D1FB6823F016
:1029AC007003FB603B685B68FA681343FB607B68F1
:1029BC001A4A934207D07B68B3F1804F03D07B68EF
:1029CC00174A934208D1FB6823F44073FB603B68C1
:1029DC00DB68FA681343FB60FB6823F080023B68FA
:1029EC005B691343FB607B68FA681A603B689A6802
:1029FC007B68DA623B681A687B689A627B68074A74
:102A0C00934203D13B681A697B681A637B68012285
:102A1C005A6100BF1437BD4680BC7047002C014082
:102A2C000004004080B487B000AFF860B9607A60F1
:102A3C00FB681B6A7B61FB681B6A23F00102FB6865
:102A4C001A62FB689B693B613B6923F0F0033B61B5
:102A5C007B681B013A6913433B617B6923F00A03D2
:102A6C007B617A69BB6813437B61FB683A699A6145
:102A7C00FB687A691A6200BF1C37BD4680BC704780
:102A8C0080B487B000AFF860B9607A60FB681B6AED
:102A9C007B61FB681B6A23F01002FB681A62FB68FF
:102AAC009B693B613B6923F470433B617B681B036F
:102ABC003A6913433B617B6923F0A0037B61BB68DC
:102ACC001B017A6913437B61FB683A699A61FB6865
:102ADC007A691A6200BF1C37BD4680BC704780B44F
:102AEC0085B000AF786039607B689B68FB60FB68E1
:102AFC0023F07003FB603A68FB68134343F0070351
:102B0C00FB607B68FA689A6000BF1437BD4680BCD6
:102B1C00704780B487B000AFF860B9607A603B60F2
:102B2C00FB689B687B617B6923F47F437B613B681B
:102B3C001A027B681A43BB6813437A6913437B619F
:102B4C00FB687A699A6000BF1C37BD4680BC704731
:102B5C0080B485B000AF786039607B6893F83C3006
:102B6C00012B01D1022341E07B68012283F83C2038
:102B7C007B68022283F83D207B681B685B68FB60E6
:102B8C007B681B689B68BB60FB6823F07003FB6071
:102B9C003B681B68FA681343FB607B681B68FA6828
:102BAC005A607B681B68144A934209D07B681B6887
:102BBC00B3F1804F04D07B681B68104A93420CD150
:102BCC00BB6823F08003BB603B685B68BA68134347
:102BDC00BB607B681B68BA689A607B68012283F8CB
:102BEC003D207B68002283F83C20002318461437D4
:102BFC00BD4680BC704700BF002C01400004004063
:102C0C0080B483B000AF786000BF0C37BD4680BC89
:102C1C00704780B483B000AF786000BF0C37BD46FE
:102C2C0080BC704770B500260C4D0D4C641BA41075
:102C3C00A64209D100F022F800260A4D0A4C641B6A
:102C4C00A410A64205D170BD55F8043B9847013637
:102C5C00EEE755F8043B98470136F2E7C42C000820
:102C6C00C42C0008C42C0008C82C000803460244DD
:102C7C00934200D1704703F8011BF9E7F8B500BF88
:102C8C00F8BC08BC9E467047F8B500BFF8BC08BC41
:042C9C009E46704799
:102CA00000000000000000000102030406070809FC
:102CB00002030405060708090A0B0C0D0E0F10107D
:042CC000010200000D
:042CC40031010008D2
:042CC8000D010008F2
:102CCC0001000000010000000100000001000000F4
:102CDC0000000000010000000100000001000000E5
:102CEC0001000000000000000100000001000000D5
:102CFC0001000000010000000000000005000000C1
:102D0C0005000000020000000300000005000000A8
:102D1C00050000000500000019000000190000006B
:102D2C00630000000024F40010000000010000000B
:04000005080015F9E1
:00000001FF
